:020000040802F0
:1000000054686F6D00000100000800004261726ECC
:1000100061636C65544100000000000001000100B4
:100020000000000038A7EF590000000000000000A9
:1000300000000000000000000000000000000000C0
:1000400000000000000000000000000000000000B0
:1000500000000000000000000000000000000000A0
:100060000000000000000000000000000000000090
:1008000000800120357402087965020887650208B6
:100810008D650208936502089965020800000000D2
:100820000000000000000000000000009F650208BA
:10083000AD65020800000000BB650208C96502083A
:10084000857402088574020885740208857402089C
:10085000857402088574020885740208857402088C
:10086000857402088574020885740208857402087C
:10087000857402088574020885740208857402086C
:10088000857402088574020885740208857402085C
:10089000857402088574020885740208857402084C
:1008A000857402088574020885740208857402083C
:1008B000857402088574020885740208857402082C
:1008C000857402088574020885740208857402081C
:1008D000857402088574020885740208857402080C
:1008E00085740208857402088574020885740208FC
:1008F00085740208857402088574020885740208EC
:1009000085740208857402088574020885740208DB
:1009100085740208857402088574020885740208CB
:1009200085740208857402088574020885740208BB
:1009300085740208857402088574020885740208AB
:10094000857402088574020885740208D965020856
:10095000857402088574020885740208857402088B
:10096000857402088574020885740208857402087B
:10097000857402088574020885740208000000006E
:08098000857402088574020869
:1009900010B5054C237833B9044B13B10448AFF3B9
:1009A00000800123237010BDCC0100200000000056
:1009B0001C84020808B5034B1BB103490348AFF37D
:1009C000008008BD00000000D00100201C84020847
:1009D00001F0FF01102A2BDB10F0070F08D010F8F0
:1009E000013B013A8B422DD010F0070F42B3F6D1F4
:1009F000F0B441EA012141EA014122F007047FF00D
:100A000000070023F0E80256083C85EA010586EA63
:100A1000010685FA47F5A3FA87F586FA47F6A5FA9F
:100A200087F68EB9EED1F0BC01F0FF0102F00702AB
:100A300032B110F8013B013A83EA010313B1F8D156
:100A40000020704701387047002D06BF3546033837
:100A5000073815F0010F07D1013015F4807F02BF70
:100A6000013015F4C03F0130F0BC0138704700BFC1
:100A700080B500AF032000F01FF9002000F006F859
:100A800005F00CFD0023184680BD000080B582B043
:100A900000AF7860094B1B68094AA2FB03239B093E
:100AA000184600F03EF9002279684FF0FF3000F060
:100AB0000EF9002318460837BD4680BD10010020FE
:100AC000D34D621080B400AF044B1B680133034A5E
:100AD000136000BFBD465DF8047B7047180400201A
:100AE00080B400AF034B1B681846BD465DF8047B1D
:100AF000704700BF1804002080B584B000AF786054
:100B00000023FB60FFF7ECFFF86000BFFFF7E8FF92
:100B10000246FB68D21A7B689A42F7D300BF1037AF
:100B2000BD4680BD80B485B000AF78607B6803F0BF
:100B30000703FB600C4BDB68BB60BA684FF6FF0332
:100B40001340BB60FB681A02BB68134343F0BF63EA
:100B500043F40033BB60044ABB68D36000BF143762
:100B6000BD465DF8047B704700ED00E080B400AF47
:100B7000044BDB681B0A03F007031846BD465DF80B
:100B8000047B704700ED00E080B483B000AF034603
:100B9000FB71094997F907305B09FA7902F01F02E6
:100BA000012000FA02F241F8232000BF0C37BD46B5
:100BB0005DF8047B704700BF00E100E080B483B0C3
:100BC00000AF03463960FB7197F90730002B0BDA51
:100BD0000D49FB7903F00F03043B3A68D2B21201CE
:100BE000D2B20B441A7609E0084997F907303A68FF
:100BF000D2B21201D2B20B4483F8002300BF0C37EB
:100C0000BD465DF8047B704700ED00E000E100E0C8
:100C100080B489B000AFF860B9607A60FB6803F017
:100C20000703FB61FB69C3F10703042B28BF0423FF
:100C3000BB61FB690433062B02D9FB69033B00E06F
:100C400000237B610122BB6902FA03F35A1EBB68D1
:100C50001A407B699A4001217B6901FA03F3591E0E
:100C60007B680B40134318462437BD465DF8047B70
:100C70007047000080B582B000AF78607B68013BB0
:100C8000B3F1807F01D301230FE00A4A7B68013B67
:100C900053600F214FF0FF30FFF790FF054B00220C
:100CA0009A60044B07221A60002318460837BD4695
:100CB00080BD00BF10E000E080B582B000AF78607A
:100CC0007868FFF72FFF00BF0837BD4680BD80B5AD
:100CD00086B000AF0346B9607A60FB7300237B6186
:100CE000FFF744FF78617A68B9687869FFF790FF89
:100CF000024697F90F3011461846FFF75FFF00BF15
:100D00001837BD4680BD80B582B000AF0346FB7189
:100D100097F907301846FFF737FF00BF0837BD4681
:100D200080BD80B582B000AF78607868FFF7A2FF21
:100D3000034618460837BD4680BD000080B483B026
:100D400000AF78607B68042B06D1094A084B1B680A
:100D500043F00403136005E0054A054B1B6823F0CC
:100D60000403136000BF0C37BD465DF8047B704779
:100D700010E000E080B500AF00F002F800BF80BDD9
:100D800080B400AF00BFBD465DF8047B7047000033
:100D900080B487B000AF7860396000237B610023A6
:100DA000FB6000233B617FE13B681A6801217B699E
:100DB00001FA03F31340FB60FB68002B00F0718124
:100DC0003B685B68022B03D03B685B68122B23D126
:100DD0007B69DA087B68083253F822303B617B6913
:100DE00003F007039B000F2202FA03F3DB433A6987
:100DF00013403B613B681A697B6903F007039B0062
:100E000002FA03F33A6913433B617B69DA087B68B2
:100E10000832396943F822107B681B683B617B69A3
:100E20005B00032202FA03F3DB433A6913403B61A0
:100E30003B685B6803F003027B695B0002FA03F323
:100E40003A6913433B617B683A691A603B685B68A7
:100E5000012B0BD03B685B68022B07D03B685B68BB
:100E6000112B03D03B685B68122B30D17B689B68E9
:100E70003B617B695B00032202FA03F3DB433A69BF
:100E800013403B613B68DA687B695B0002FA03F35D
:100E90003A6913433B617B683A699A607B685B6897
:100EA0003B6101227B6902FA03F3DB433A69134099
:100EB0003B613B685B681B0903F001027B6902FA36
:100EC00003F33A6913433B617B683A695A603B68B4
:100ED0005B6803F00303032B18D17B68DB6A3B617B
:100EE00001227B6902FA03F3DB433A6913403B6159
:100EF0003B685B68DB0803F001027B6902FA03F3DD
:100F00003A6913433B617B683A69DA627B68DB6864
:100F10003B617B695B00032202FA03F3DB433A691E
:100F200013403B613B689A687B695B0002FA03F3FC
:100F30003A6913433B617B683A69DA603B685B68F6
:100F400003F08053002B00F0AC805E4A5D4B1B6EBB
:100F500043F0010313665B4B1B6E03F00103BB60A0
:100F6000BB68594A7B699B08023352F823303B61C6
:100F70007B6903F003039B000F2202FA03F3DB43B8
:100F80003A6913403B617B68B3F1904F25D07B6891
:100F90004E4A93421FD07B684D4A934219D07B68DA
:100FA0004C4A934213D07B684B4A93420DD07B68E6
:100FB0004A4A934207D07B68494A934201D10623AB
:100FC0000CE007230AE0052308E0042306E00323DE
:100FD00004E0022302E0012300E000237A6902F02A
:100FE0000302920093403A6913433B6136497B699F
:100FF0009B0802333A6941F823203A4B1B683B6156
:10100000FB68DB433A6913403B613B685B6803F470
:101010008033002B03D03A69FB6813433B61314AAC
:101020003B6913602F4B5B683B61FB68DB433A69AC
:1010300013403B613B685B6803F40033002B03D033
:101040003A69FB6813433B61264A3B695360254B71
:101050009B683B61FB68DB433A6913403B613B683B
:101060005B6803F48013002B03D03A69FB681343D9
:101070003B611C4A3B6993601A4BDB683B61FB6830
:10108000DB433A6913403B613B685B6803F4001340
:10109000002B03D03A69FB6813433B61114A3B695B
:1010A000D3607B6901337B613B681A687B6922FAF4
:1010B00003F3002B7FF478AE00BF1C37BD465DF80C
:1010C000047B70470010024000000140000400480B
:1010D00000080048000C00480010004800140048B8
:1010E0000018004800040140F0B58FB00AAF7860E6
:1010F0000023FB607B68002B01D101230DE17B689D
:1011000093F88533DBB2002B06D17B68002283F88D
:101110008423786805F0A4FC7B68032283F8852388
:101120007B681B68184602F0F7FD7B681B683B6014
:101130007E686D4606F110040FCC0FC50FCC0FC5AD
:1011400094E8030085E80300331D0ECB386802F0F5
:10115000B4FD7B681B680021184602F0EEFD0023F9
:10116000FB604CE07968FA681346DB009B1A9B0031
:101170000B443D3301221A70FB68D8B27968FA68D3
:101180001346DB009B1A9B000B443C3302461A704B
:10119000FB6898B27968FA681346DB009B1A9B00DB
:1011A0000B44423302461A807968FA681346DB0022
:1011B0009B1A9B000B443F3300221A707968FA682F
:1011C0001346DB009B1A9B000B44443300221A6039
:1011D0007968FA681346DB009B1A9B000B4448337E
:1011E00000221A607968FA681346DB009B1A9B009C
:1011F0000B44503300221A60FB680133FB607B68AC
:101200005A68FB689A42ADD80023FB6052E07968C7
:10121000FA681346DB009B1A9B000B4403F2E113B0
:1012200000221A70FB68D8B27968FA681346DB00AE
:101230009B1A9B000B4403F5F07302461A70FB687F
:1012400098B27968FA681346DB009B1A9B000B443E
:10125000423302461A807968FA681346DB009B1A0B
:101260009B000B4403F2E31300221A707968FA68BA
:101270001346DB009B1A9B000B4403F5F47300221A
:101280001A607968FA681346DB009B1A9B000B44CE
:1012900003F5F67300221A607968FA681346DB00DA
:1012A0009B1A9B000B4403F5FA7300221A60FB683B
:1012B0000133FB60FB680E2BA9D97B681B683B6080
:1012C0007E686D4606F110040FCC0FC50FCC0FC51C
:1012D00094E8030085E80300331D0ECB386802F064
:1012E00053FD7B68002283F838207B68012283F855
:1012F00085237B685B6A012B02D1786801F08AF84C
:101300007B689B6A012B02D1786801F0A7F87B68A3
:101310001B68184603F0AAFC002318461437BD4684
:10132000F0BD80B582B000AF78607B6893F88433FD
:10133000012B01D1022312E07B68012283F8842370
:101340007B681B68184603F07AFC7B681B681846AC
:1013500002F0D1FC7B68002283F884230023184626
:101360000837BD4680BD000080B58CB000AF786006
:101370007B681B683B620023FB620023BB62002387
:10138000FB6100237B620023BB6100237B610023A0
:101390003B616B4BFB607B681B68184603F00EFDDE
:1013A0000346002B40F00C857B681B68184603F051
:1013B00074FC0346002B00F002857B681B6818460E
:1013C00003F06BFC034603F00203022B07D17B689A
:1013D0001B687A681268526902F002025A617B68DF
:1013E0001B68184603F059FC034603F40023B3F5C9
:1013F000002F40F0358100237B627B681B68184614
:1014000003F060FCB86227E1BB6A03F00103002B24
:1014100000F01C817B681B687A6AD2B211461846BC
:1014200003F080FCF861FB6903F00103002B00F07E
:10143000EE807B6A5A013B6A134403F530631A4617
:10144000012393603B6A1B6C3E4A93427CD13B6A0A
:1014500003F530639B6803F40043002B62D17B6883
:101460001B69012B3CD179687A6A1346DB009B1A11
:101470009B000B4403F5F4731A687B6A59013B6ABD
:101480000B4403F530631B69C3F31203D11A786868
:101490007A6A1346DB009B1A9B00034403F5FC7336
:1014A000196079687A6A1346DB009B1A9B000B442B
:1014B00003F5F673196878687A6A1346DB009B1A9D
:1014C0009B00034403F5F4731B68194478687A6A37
:1014D0001346DB009B1A9B00034403F5F673196067
:1014E0007B6ADBB21946786805F01EFB7B681B69D6
:1014F000012B17D17B6A002B14D179687A6A1346C5
:10150000DB009B1A9B000B4403F5FA731B68002B4E
:1015100008D17B6818687B6803F562731A4601215D
:1015200003F090FC3B6A03F530631A463B6A03F50F
:1015300030639B6843F4004343F02003936066E00C
:1015400000B4C4040A31544F7B681B69012B3CD1A1
:1015500079687A6A1346DB009B1A9B000B4403F5FB
:10156000F4731A687B6A59013B6A0B4403F53063D4
:101570001B69C3F31203D11A78687A6A1346DB0039
:101580009B1A9B00034403F5FC73196079687A6A1F
:101590001346DB009B1A9B000B4403F5F673196896
:1015A00078687A6A1346DB009B1A9B00034403F5B4
:1015B000F4731B68194478687A6A1346DB009B1A37
:1015C0009B00034403F5F67319607B6ADBB219468E
:1015D000786805F0A9FA7B681B69012B17D17B6A33
:1015E000002B14D179687A6A1346DB009B1A9B00A2
:1015F0000B4403F5FA731B68002B08D17B6818684D
:101600007B6803F562731A46012103F01BFCFB693A
:1016100003F00803002B0BD0786805F073FA7B6A9F
:101620005A013B6A134403F530631A46082393605A
:10163000FB6903F01003002B08D07B6A5A013B6A58
:10164000134403F530631A46102393607B6A013319
:101650007B62BB6A5B08BB62BB6A002B7FF4D4AEC3
:101660007B681B68184603F018FB034603F48023CD
:10167000B3F5802F40F0C3807B681B68184603F0E9
:1016800039FBB86200237B62B5E0BB6A03F001035B
:10169000002B00F0AA807B681B687A6AD2B21146E0
:1016A000184603F05BFBF861FB6903F00103002BB4
:1016B0005AD001227B6A02FA03F3BB613B6A03F54D
:1016C000006319463B6A03F500635A6BBB69DB4351
:1016D00013404B637B6A5A013B6A134403F5106362
:1016E0001A46012393607B681B69012B1BD1796823
:1016F0007A6A1346DB009B1A9B000B444833196837
:1017000078687A6A1346DB009B1A9B0003444433D3
:101710001B68194478687A6A1346DB009B1A9B00A1
:101720000344483319607B6ADBB21946786805F0D8
:1017300016FA7B681B69012B16D17B6A002B13D12B
:1017400079687A6A1346DB009B1A9B000B4450337E
:101750001B68002B08D17B6818687B6803F56273EF
:101760001A46012103F06EFBFB6903F00803002B0E
:1017700008D07B6A5A013B6A134403F510631A468A
:1017800008239360FB6903F01003002B08D07B6AE9
:101790005A013B6A134403F510631A461023936001
:1017A000FB6903F04003002B08D07B6A5A013B6AB7
:1017B000134403F510631A4640239360FB6903F05A
:1017C0000203002B08D07B6A5A013B6A134403F5DD
:1017D00010631A4602239360FB6903F08003002B19
:1017E00003D0796A786800F02AFD7B6A01337B6256
:1017F000BB6A5B08BB62BB6A002B7FF446AF7B68A9
:101800001B68184603F049FA034603F00043B3F19E
:10181000004F23D13B6A03F500631A463B6A03F588
:1018200000635B6823F0010353607B6893F8B8336F
:10183000012B08D17B68002283F8B8230021786847
:1018400005F0B2FC02E0786805F0FCF97B681B68E3
:101850007A681268526902F000425A617B681B681C
:10186000184603F01AFA034603F40063B3F5006F59
:1018700012D13B6A03F500639B6803F00103012B5F
:1018800002D1786805F0B6F97B681B687A6812683F
:10189000526902F400625A617B681B68184603F0C3
:1018A000FCF9034603F00063B3F1006F21D17B68BC
:1018B0001B687A681268526902F000625A617B689C
:1018C00093F8B833002B11D17B68012283F8B82339
:1018D0007B681B685B6D9B0803F00F027B68C3F895
:1018E000BC230121786805F05FFC02E0786805F010
:1018F00081F97B681B68184603F0CFF9034603F4AF
:101900008053B3F5805F40F091803B6A03F500633C
:101910001A463B6A03F500635B6823F001035360DA
:101920007B681B680021184602F05CFB0023FB6209
:1019300014E0FB6A5A013B6A134403F510631A462C
:10194000FF239360FB6A5A013B6A134403F530633B
:101950001A46FF239360FB6A0133FB627B685A6877
:10196000FB6A9A42E5D83B6A03F500631A464FF0DA
:10197000FF3393613B6A03F500631A463B6A03F544
:101980000063DB6943F00113D3617B681B6B002BA1
:1019900018D03B6A03F500631A463B6A03F50063FF
:1019A000D3F8843043F00B03C2F884303B6A03F56C
:1019B00000631A463B6A03F500635B6C43F00B035C
:1019C000536415E03B6A03F500631A463B6A03F56E
:1019D00000635B6943F00B0353613B6A03F50063EB
:1019E0001A463B6A03F500631B6943F00B0313615E
:1019F0003B6A03F500631A463B6A03F500631B6804
:101A000023F4FE6313607B6818687B681B69D9B296
:101A10007B6803F562731A4603F014FA7B681B684F
:101A20007A681268526902F480525A617B681B68B6
:101A3000184603F032F9034603F40053B3F5005F90
:101A400040F0C2807B681B68184603F0C5F97B68CC
:101A50001B687A681268D26822F47052DA607B6878
:101A60000322DA607B6840225A6101F025FBF860AE
:101A7000FB687B4A93420CD9FB687A4A934208D8A8
:101A80007B681B687A681268D26842F47052DA6028
:101A90008FE0FB68734A93420CD9FB68724A934209
:101AA00008D87B681B687A681268D26842F4605272
:101AB000DA607EE0FB686C4A93420CD9FB686B4AA3
:101AC000934208D87B681B687A681268D26842F42F
:101AD0005052DA606DE0FB68644A93420CD9FB68AF
:101AE000634A934208D87B681B687A681268D26898
:101AF00042F44052DA605CE0FB685D4A93420CD9E4
:101B0000FB685C4A934208D87B681B687A68126855
:101B1000D26842F43052DA604BE0FB68554A934297
:101B20000CD9FB68544A934208D87B681B687A68D2
:101B30001268D26842F42052DA603AE0FB684E4AFA
:101B400093420CD9FB684D4A934208D87B681B68C6
:101B50007A681268D26842F41052DA6029E0FB68B1
:101B6000464A93420CD9FB68454A934208D87B68A1
:101B70001B687A681268D26842F40052DA6018E092
:101B8000FB683F4A93420CD9FB683E4A934208D80F
:101B90007B681B687A681268D26842F4E052DA60A7
:101BA00007E07B681B687A681268D26842F4C0520A
:101BB000DA60786804F0FBFF7B681B687A6812685B
:101BC000526902F400525A617B681B68184603F0A0
:101BD00064F8034603F01003102B74D17B681B6874
:101BE0007A681268926922F010029A613B6A1B6A55
:101BF0007B617B6903F00F021346DB009B1A9B009D
:101C000003F5F0737A6813443B617B695B0C03F066
:101C10000F03022B38D17A6947F6F0731340002B7B
:101C200049D03B69D9687B691B099BB2C3F30A039E
:101C30009BB21A46386A02F0D4FE3B69DA687B69C7
:101C40001B09C3F30A031A443B69DA603B699A69CA
:101C50007B691B09C3F30A031A443B699A612AE0B2
:101C6000BFACD800BFE1E400FF23F4007F7306019E
:101C70009F491A01FF2C31013FA44C01FF356E0131
:101C80001FABA601FF47E8017B695B0C03F00F0364
:101C9000062B10D17B6803F5627308221946386A57
:101CA00002F09FFE3B699A697B691B09C3F30A0333
:101CB0001A443B699A617B681B687A68126892696A
:101CC00042F010029A617B681B68184602F0E5FF3B
:101CD000034603F00803082B0AD1786804F059FF83
:101CE0007B681B687A681268526902F008025A61C0
:101CF0007B681B68184602F0D0FF034603F480138C
:101D0000B3F5801F0DD17B6ADBB21946786804F009
:101D1000D5FF7B681B687A681268526902F48012EA
:101D20005A617B681B68184602F0B7FF034603F44C
:101D30000013B3F5001F0DD17B6ADBB2194678683A
:101D400004F0AAFF7B681B687A681268526902F483
:101D500000125A617B681B68184602F09EFF03461A
:101D600003F08043B3F1804F0AD1786804F0B8FFE4
:101D70007B681B687A681268526902F080425A6177
:101D80007B681B68184602F088FF034603F00403D3
:101D9000042B15D17B681B685B687B617B6903F052
:101DA0000403002B02D0786804F0A8FF7B681B684E
:101DB0007A68126851687A690A435A6000E000BF85
:101DC0003037BD4680BD00BF80B582B000AF7860BF
:101DD0000B46FB707B6893F88433012B01D10223FF
:101DE00013E07B68012283F884237B68FA7883F808
:101DF00038207B681B68FA781146184602F0F9FE15
:101E00007B68002283F88423002318460837BD46E8
:101E100080BD80B584B000AF7860084611461A4690
:101E20000346FB700B463B801346BB700023FB72DE
:101E30000023FB6097F90330002B0CDAFB7803F0EA
:101E40007F021346DB009B1A9B0038337A681344E9
:101E50000433FB600BE0FB7803F07F021346DB00EA
:101E60009B1A9B0003F5F0737A681344FB60FB78C0
:101E700003F07F03DAB2FB681A7097F90330DBB224
:101E8000DB09DBB21A46FB685A703A88FB689A6035
:101E9000FB68BA78DA707B6893F88433012B01D140
:101EA00002230EE07B68012283F884237B681B6891
:101EB000F968184602F0F6F87B68002283F884235C
:101EC000FB7A18461037BD4680BD80B584B000AFA0
:101ED00078600B46FB700023FB6097F90330002B02
:101EE0000CDAFB7803F07F021346DB009B1A9B00A1
:101EF00038337A6813440433FB600BE0FB7803F05B
:101F00007F021346DB009B1A9B0003F5F0737A688F
:101F10001344FB60FB7803F07F03DAB2FB681A70AE
:101F200097F90330DBB2DB09DBB21A46FB685A7063
:101F30007B6893F88433012B01D102230EE07B6888
:101F4000012283F884237B681B68F968184602F035
:101F500032F97B68002283F8842300231846103767
:101F6000BD4680BD80B586B000AFF8607A603B604A
:101F70000B46FB7200237B61FB7A03F07F02134662
:101F8000DB009B1A9B0003F5F073FA6813447B6136
:101F90007B697A68DA607B693A685A617B690022FA
:101FA0009A617B6900225A70FB7A03F07F03DAB2F0
:101FB0007B691A70FB6893F88433012B01D10223EB
:101FC00020E0FB68012283F88423FB7A03F07F037F
:101FD000002B09D1FB681868FB681B69DBB21A4645
:101FE000796902F089FB08E0FB681868FB681B69E7
:101FF000DBB21A46796902F059F9FB68002283F8CE
:102000008423002318461837BD4680BD80B483B0B2
:1020100000AF78600B46FB70FB7803F07F027968B5
:102020001346DB009B1A9B000B4403F5FC731B68F3
:102030009BB218460C37BD465DF8047B704780B5EF
:1020400086B000AFF8607A603B600B46FB720023FD
:102050007B61FB7A03F07F021346DB009B1A9B0037
:102060003833FA68134404337B617B697A68DA6039
:102070007B693A685A617B6900229A617B69012217
:102080005A70FB7A03F07F03DAB27B691A70FB683F
:1020900093F88433012B01D1022320E0FB68012255
:1020A00083F88423FB7A03F07F03002B09D1FB68BC
:1020B0001868FB681B69DBB21A46796902F01CFBE1
:1020C00008E0FB681868FB681B69DBB21A4679698F
:1020D00002F0ECF8FB68002283F884230023184602
:1020E0001837BD4680BD80B584B000AF78600B4620
:1020F000FB700023FB6097F90330002B0CDAFB78B0
:1021000003F07F021346DB009B1A9B0038337A688A
:1021100013440433FB6009E0FA781346DB009B1A92
:102120009B0003F5F0737A681344FB60FB6801229F
:102130009A70FB7803F07F03DAB2FB681A7097F9A4
:102140000330DBB2DB09DBB21A46FB685A707B68EE
:1021500093F88433012B01D102231EE07B68012216
:1021600083F884237B681B68F968184602F063FCD7
:10217000FB7803F07F03002B0AD17B6818687B682B
:102180001B69D9B27B6803F562731A4602F05AFEE6
:102190007B68002283F88423002318461037BD464D
:1021A00080BD80B584B000AF78600B46FB70002323
:1021B000FB6097F90330002B0CDAFB7803F07F0209
:1021C0001346DB009B1A9B0038337A6813440433B0
:1021D000FB6009E0FA781346DB009B1A9B0003F5CD
:1021E000F0737A681344FB60FB6800229A70FB78F6
:1021F00003F07F03DAB2FB681A7097F90330DBB2A1
:10220000DB09DBB21A46FB685A707B6893F88433AB
:10221000012B01D102230EE07B68012283F8842385
:102220007B681B68F968184602F076FC7B68002220
:1022300083F88423002318461037BD4680BD80B53F
:102240008AB002AF786039607B681B687B610023CD
:102250003B610023FB610023BB610023FB603A6804
:102260001346DB009B1A9B0038337A68134404330F
:102270003B613B695A693B699B69D31AFB613B69C6
:102280009A68FB699A4202D23B699B68FB61FB69D1
:102290000333002B00DA03339B10BB612EE03B6954
:1022A0005A693B699B69D31AFB613B699A68FB6970
:1022B0009A4202D23B699B68FB61FB690333002BA6
:1022C00000DA03339B10BB613B69D9683B68DAB223
:1022D000FB6998B27B681B69DBB20093034678699F
:1022E00002F04BFB3B69DA68FB691A443B69DA6030
:1022F0003B699A69FB691A443B699A613B685A01D8
:102300007B69134403F510639B699AB2BB699A42D7
:1023100009D93B699A693B695B699A4203D23B6977
:102320005B69002BBBD1FB69002B10DC01223B68F1
:1023300002FA03F3FB607B6903F5006319467B69CE
:1023400003F500635A6BFB68DB4313404B630023C8
:1023500018462037BD4680BD80B485B000AF786098
:102360000B46FB7013463B800023FB730023BB60CE
:102370007B681B685B6ABB60FB78002B08D17B68BD
:102380001B683A8812041146BA680A439A6229E027
:102390007B681B689B6A1B0CBA681344BB600023F4
:1023A000FB730DE07B681A68FB7B40339B00134492
:1023B0005B681B0CBA681344BB60FB7B0133FB7387
:1023C000FA7BFB78013B9A42ECDB7B681968FB786F
:1023D000013B3A8812041046BA68024340339B001E
:1023E0000B445A60002318461437BD465DF8047B41
:1023F000704780B483B000AF78600B467B807B6809
:102400001B687A885A62002318460C37BD465DF86F
:10241000047B704780B485B000AF78607B681B6830
:10242000FB607B680122C3F8C0237B68002283F82D
:10243000B823FB689B6943F00062FB689A61FB6804
:102440005B6D43F0805343F00303FA685365002348
:1024500018461437BD465DF8047B704780B485B0DC
:1024600000AF78607B681B68FB607B680122C3F863
:10247000C423FB689B6B43F40032FB689A63002320
:1024800018461437BD465DF8047B704780B400AF32
:10249000044B1B6803F4C0631846BD465DF8047B1B
:1024A000704700BF0070004080B485B000AF786016
:1024B0000023FB607B68B3F5007F2FD1224B1B68A4
:1024C00003F4C063B3F5007F37D01F4A1E4B1B686F
:1024D00023F4C06343F4007313601C4B1B681C4A55
:1024E000A2FB03239B0C322202FB03F3FB6002E0FE
:1024F000FB68013BFB60FB68002B06D0124B5B695D
:1025000003F48063B3F5806FF2D00F4B5B6903F483
:102510008063B3F5806F10D103230FE00A4B1B6873
:1025200003F4C063B3F5806F07D0074A064B1B68FE
:1025300023F4C06343F48063136000231846143708
:10254000BD465DF8047B704700700040100100201C
:1025500083DE1B4380B400AF054A054B5B6843F440
:102560008063536000BFBD465DF8047B704700BFC9
:102570000070004080B58CB000AF78600023BB6273
:102580007B681B6803F01003002B00F0DB80A24B7C
:102590009B6803F00C03002B40F084809E4B1B686B
:1025A00003F00203002B05D07B689B69002B01D14F
:1025B00001235FE37B681A6A974B1B6803F00803EB
:1025C000002B04D0944B1B6803F0F00305E0924B02
:1025D000D3F894301B0903F0F0039A4223D97B68A7
:1025E0001B6A184600F074FD0346002B01D001233E
:1025F00040E3894A884B1B6843F00803136086490F
:10260000854B1B6823F0F0027B681B6A13430B6049
:102610008149814B5B6823F47F427B68DB691B0245
:1026200013434B6022E07C4A7B4B1B6843F008035A
:1026300013607949784B1B6823F0F0027B681B6AB2
:1026400013430B607449744B5B6823F47F427B68CF
:10265000DB691B0213434B607B681B6A184600F062
:1026600037FD0346002B01D0012303E300F02AFCD1
:102670000146694B9B6803F0F002F0237B627B6AA2
:1026800093FAA3F33B623B6AB3FA83F322FA03F3B0
:10269000624AD35C21FA03F3614A13600020FEF71B
:1026A000F5F94FE07B689B69002B32D05A4A5A4BB0
:1026B0001B6843F001031360FEF712FAB86208E0EA
:1026C000FEF70EFA0246BB6AD31A022B01D9032386
:1026D000D0E2514B1B6803F00203002BF0D04E4AAE
:1026E0004D4B1B6843F0080313604B494A4B1B6872
:1026F00023F0F0027B681B6A13430B604649464B8C
:102700005B6823F47F427B68DB691B0213434B60E9
:1027100018E0414A404B1B6823F001031360FEF7A9
:10272000DFF9B86208E0FEF7DBF90246BB6AD31AAC
:10273000022B01D903239DE2374B1B6803F00203F0
:10274000002BF0D17B681B6803F00103002B7AD0CB
:10275000314B9B6803F00C03082B0BD02E4B9B686E
:1027600003F00C030C2B11D12B4BDB6803F003039C
:10277000032B0BD1284B1B6803F40033002B61D0D3
:102780007B685B68002B5DD1012373E27B685B682B
:10279000B3F5803F06D1204A1F4B1B6843F48033BA
:1027A00013601DE07B685B68B3F5A02F0CD11A4A5B
:1027B000194B1B6843F480231360174A164B1B68A0
:1027C00043F4803313600BE0134A134B1B6823F46C
:1027D00080331360104A104B1B6823F4802313606E
:1027E0007B685B68002B13D0FEF77AF9B86208E0CB
:1027F000FEF776F90246BB6AD31A642B01D903238C
:1028000038E2054B1B6803F40033002BF0D01AE0CC
:10281000FEF766F9B8620EE000100240D8840208A4
:1028200010010020FEF75CF90246BB6AD31A642B44
:1028300001D903231EE2B04B1B6803F40033002BC5
:10284000F0D100E000BF7B681B6803F00203002B9F
:102850007FD0A94B9B6803F00C03042B0BD0A64B35
:102860009B6803F00C030C2B27D1A34BDB6803F010
:102870000303022B21D1A04B1B6803F48063002BC0
:1028800005D07B68DB68002B01D10123F2E19A4877
:10289000994B5B6823F0F8527B6819694FF0F85345
:1028A000FB61FB6993FAA3F3BB61BB69B3FA83F3E2
:1028B00001FA03F3134343604BE07B68DB68002BB2
:1028C0002ED08D4A8C4B1B6843F480731360FEF747
:1028D00007F9B86208E0FEF703F90246BB6AD31AAB
:1028E000022B01D90323C5E1834B1B6803F48063EA
:1028F000002BF0D08048804B5B6823F0F8527B6857
:1029000019694FF0F8537B617B6993FAA3F33B613C
:102910003B69B3FA83F301FA03F31343436018E00E
:10292000754A754B1B6823F480731360FEF7D8F863
:10293000B86208E0FEF7D4F80246BB6AD31A022B4D
:1029400001D9032396E16C4B1B6803F48063002BD1
:10295000F0D17B681B6803F00803002B3CD07B6838
:102960005B69002B1CD0644A634BD3F8943043F06E
:102970000103C2F89430FEF7B3F8B86208E0FEF73E
:10298000AFF80246BB6AD31A022B01D9032371E1C7
:10299000594BD3F8943003F00203002BEFD01BE027
:1029A000554A554BD3F8943023F00103C2F89430C4
:1029B000FEF796F8B86208E0FEF792F80246BB6AA6
:1029C000D31A022B01D9032354E14B4BD3F8943093
:1029D00003F00203002BEFD17B681B6803F00403B4
:1029E000002B00F0A980002387F82F30424B9B6D0D
:1029F00003F08053002B0ED13F4A3F4B9B6D43F0B9
:102A0000805393653C4B9B6D03F08053FB60FB68E8
:102A1000012387F82F30394B1B6803F48073002B98
:102A200018D1364A354B1B6843F480731360FEF7A8
:102A300057F8B86208E0FEF753F80246BB6AD31AAB
:102A4000022B01D9032315E12C4B1B6803F480737F
:102A5000002BF0D07B689B68012B08D1264A264BBF
:102A6000D3F8903043F00103C2F8903024E07B6843
:102A70009B68052B10D1204A1F4BD3F8903043F0B0
:102A80000403C2F890301C4A1B4BD3F8903043F03B
:102A90000103C2F890300FE0174A174BD3F890307B
:102AA00023F00103C2F89030134A134BD3F890304F
:102AB00023F00403C2F890307B689B68002B16D08B
:102AC000FEF70EF8B8620AE0FEF70AF80246BB6AA3
:102AD000D31A41F28832934201D90323CAE0064B4C
:102AE000D3F8903003F00203002BEDD01AE0FDF78D
:102AF000F7FFB8620FE000BF001002400070004016
:102B0000FDF7EEFF0246BB6AD31A41F288329342C8
:102B100001D90323AEE0594BD3F8903003F0020300
:102B2000002BEDD197F82F30012B05D1534A534B91
:102B30009B6D23F0805393657B689B6A002B00F0AC
:102B400098804E4B9B6803F00C030C2B00F08F8099
:102B50007B689B6A022B56D1484A484B1B6823F07E
:102B600080731360FDF7BCFFB86208E0FDF7B8FFA3
:102B70000246BB6AD31A022B01D903237AE03F4BEA
:102B80001B6803F00073002BF0D13C497B681B6B82
:102B9000013B1A017B685B6B1B021A437B689B6BD2
:102BA0001B095B041A437B68DB6A1A437B68DB6B97
:102BB0005B08013B5B051A437B681B6C5B08013BB0
:102BC0005B061343CB602D4A2C4B1B6843F080738C
:102BD00013602A4A294BDB6843F08073D360FDF70A
:102BE0007FFFB86208E0FDF77BFF0246BB6AD31A9D
:102BF000022B01D903233DE0204B1B6803F0007337
:102C0000002BF0D035E01D4A1C4B1B6823F080736D
:102C100013601A4B1B6803F00063002B0BD1174B9A
:102C20001B6803F00053002B05D1144A134BDB68DB
:102C300023F00303D360114A104BDB6823F0887341
:102C400023F48033D360FDF74BFFB86208E0FDF753
:102C500047FF0246BB6AD31A022B01D9032309E0BE
:102C6000064B1B6803F00073002BF0D101E0012339
:102C700000E0002318463037BD4680BD00100240FA
:102C800080B586B000AF7860396000237B61894BE6
:102C90001B6803F007023B689A4210D28549854BB6
:102CA0001B6823F007023B6813430B60814B1B68D2
:102CB00003F007023B689A4201D00123F6E07B68EB
:102CC0001B6803F00203002B08D07B497A4B9B68FA
:102CD00023F0F0027B689B6813438B607B681B6862
:102CE00003F00103002B00F08E807B685B68022BF1
:102CF00007D1714B1B6803F40033002B21D1012352
:102D0000D4E07B685B68032B07D16B4B1B6803F037
:102D10000073002B15D10123C8E07B685B68002B92
:102D200007D1654B1B6803F00203002B09D1012377
:102D3000BCE0614B1B6803F48063002B01D10123CD
:102D4000B4E05D495C4B9B6823F003027B685B68E1
:102D500013438B60FDF7C4FE78617B685B68022BD0
:102D600012D10AE0FDF7BCFE02467B69D31A41F29C
:102D70008832934201D9032398E04F4B9B6803F0BC
:102D80000C03082BEED13EE07B685B68032B12D16D
:102D90000AE0FDF7A5FE02467B69D31A41F28832AC
:102DA000934201D9032381E0434B9B6803F00C035A
:102DB0000C2BEED127E07B685B68002B1DD10AE06D
:102DC000FDF78EFE02467B69D31A41F288329342A8
:102DD00001D903236AE0384B9B6803F00C03002BF6
:102DE000EED110E0FDF77CFE02467B69D31A41F27A
:102DF0008832934201D9032358E02F4B9B6803F09C
:102E00000C03042BEED12B4B1B6803F007023B682D
:102E10009A4210D92749274B1B6823F007023B68C9
:102E200013430B60234B1B6803F007023B689A4275
:102E300001D001233AE07B681B6803F00403002BF8
:102E400008D01D491C4B9B6823F4E0627B68DB685B
:102E500013438B607B681B6803F00803002B09D0C9
:102E60001549154B9B6823F460527B681B69DB0096
:102E700013438B6000F026F801460F4B9B6803F06C
:102E8000F002F0233B613B6993FAA3F3FB60FB681C
:102E9000B3FA83F322FA03F3084AD35C21FA03F36B
:102EA000074A13600020FDF7F1FD0023184618378C
:102EB000BD4680BD0020024000100240D8840208B8
:102EC0001001002080B495B000AF0023FB64002304
:102ED000BB6400233B640223FB630223BB63002328
:102EE0007B64714B9B6803F00C03002B0BD06E4B83
:102EF0009B6803F00C030C2B3CD16B4BDB6803F09D
:102F00000303012B36D1684B1B6803F00803002B29
:102F100012D1654BD3F8943003F470624FF47063B0
:102F20007B637B6B93FAA3F33B633B6BB3FA83F353
:102F300022FA03F3FB640FE05B4B1B6803F0F00223
:102F4000F023FB62FB6A93FAA3F3BB62BB6AB3FA9A
:102F500083F322FA03F3FB64544AFB6C52F82330E8
:102F6000FB64514B9B6803F00C03002B13D1FB6CEB
:102F70007B6410E04C4B9B6803F00C03042B02D1E4
:102F80004B4B7B6407E0484B9B6803F00C03082B1A
:102F900001D1484B7B64444B9B6803F00C030C2B22
:102FA0007BD1414BDB6803F003033B643E4BDB68A2
:102FB00003F0700270237B627B6A93FAA3F33B6297
:102FC0003B6AB3FA83F322FA03F30133BB633B6C2E
:102FD000022B02D0032B18D02FE0354ABB6BB2FB7B
:102FE000F3F3314AD26802F4FE414FF4FE42FA6133
:102FF000FA6992FAA2F2BA61BA69B2FA82F221FAD5
:1030000002F202FB03F3BB642FE02A4ABB6BB2FB64
:10301000F3F3254AD26802F4FE414FF4FE427A618E
:103020007A6992FAA2F23A613A69B2FA82F221FA24
:1030300002F202FB03F3BB6417E0FA6CBB6BB2FB5A
:10304000F3F3194AD26802F4FE414FF4FE42FA60EB
:10305000FA6892FAA2F2BA60BA68B2FA82F221FA77
:1030600002F202FB03F3BB6400BF0F4BDB6803F00B
:10307000C0624FF0C0637B607B6893FAA3F33B6050
:103080003B68B3FA83F322FA03F301335B00FB637B
:10309000BA6CFB6BB2FBF3F37B647B6C1846543762
:1030A000BD465DF8047B704700100240E8840208CA
:1030B0000024F40000127A0080B400AF034B1B68B8
:1030C0001846BD465DF8047B704700BF1001002024
:1030D00080B586B000AF786000237B6100233B6140
:1030E0002A4B9B6D03F08053002B03D0FFF7CEF9E2
:1030F000786114E0254A254B9B6D43F0805393651E
:10310000224B9B6D03F08053FB60FB68FFF7BEF919
:1031100078611E4A1D4B9B6D23F0805393657B693C
:10312000B3F5007F0BD17B68802B19D97B68A02B6E
:1031300002D902233B6113E001233B6110E07B686D
:10314000802B02D903233B610AE07B68802B02D1EC
:1031500002233B6104E07B68702B01D101233B61BA
:103160000B490B4B1B6823F007023B6913430B60B1
:10317000074B1B6803F007023B699A4201D0012309
:1031800000E0002318461837BD4680BD00100240FD
:103190000020024080B586B000AF786000237B61DC
:1031A0000023FB600023FB740023BB747B681B6857
:1031B00003F40063002B3FD07B685B6EB3F5800F98
:1031C0001CD0B3F5800F02D8002B0ED01FE0B3F552
:1031D000000F03D0B3F5400F1CD018E0824A824B99
:1031E000DB6843F48033D36015E07B68043300214F
:1031F000184600F0B3FA0346FB740CE07B682033FA
:103200000021184600F0FEFB0346FB7403E0012397
:10321000FB7400E000BFFB7C002B0BD17249724BAA
:10322000D3F8883023F440027B685B6E1343C1F807
:10323000883001E0FB7CBB747B681B6803F480531F
:10324000002B3FD07B689B6EB3F1807F1CD0B3F125
:10325000807F02D8002B0ED01FE0B3F1007F03D097
:10326000B3F1407F1CD018E05F4A5F4BDB6843F44A
:103270008033D36015E07B6804330021184600F0EA
:103280006DFA0346FB740CE07B682033002118467E
:1032900000F0B8FB0346FB7403E00123FB7400E07D
:1032A00000BFFB7C002B0BD14F494F4BD3F888302C
:1032B00023F040727B689B6E1343C1F8883001E0B5
:1032C000FB7CBB747B681B6803F40033002B00F0AD
:1032D0009A8000237B74444B9B6D03F08053002B3A
:1032E0000DD1414A404B9B6D43F0805393653E4B5B
:1032F0009B6D03F08053BB60BB6801237B743B4A2A
:103300003A4B1B6843F480731360FDF7E9FBF860E8
:1033100009E0FDF7E5FB0246FB68D31A022B02D950
:103320000323FB7405E0314B1B6803F48073002B0F
:10333000EFD0FB7C002B5BD12B4BD3F8903003F408
:1033400040737B617B69002B1FD07B68D3F884209E
:103350007B699A4219D0244BD3F8903023F4407300
:103360007B61214A204BD3F8903043F48033C2F87C
:1033700090301D4A1C4BD3F8903023F48033C2F8B0
:103380009030194A7B69C2F890307B6903F00103E1
:10339000002B16D0FDF7A4FBF8600BE0FDF7A0FBB7
:1033A0000246FB68D31A41F28832934202D90323C2
:1033B000FB7406E00C4BD3F8903003F00203002BB3
:1033C000ECD0FB7C002B0CD10749074BD3F8903095
:1033D00023F440727B68D3F884301343C1F89030F3
:1033E00008E0FB7CBB7405E0001002400070004068
:1033F000FB7CBB747B7C012B05D19E4A9D4B9B6D56
:1034000023F0805393657B681B6803F00103002B56
:103410000AD09849974BD3F8883023F003027B6891
:103420009B6B1343C1F888307B681B6803F0020371
:10343000002B0AD08F498F4BD3F8883023F00C0231
:103440007B68DB6B1343C1F888307B681B6803F033
:103450000403002B0AD08749864BD3F8883023F029
:1034600030027B681B6C1343C1F888307B681B6893
:1034700003F00803002B0AD07E497E4BD3F8883036
:1034800023F0C0027B685B6C1343C1F888307B6813
:103490001B6803F01003002B0AD07649754BD3F854
:1034A000883023F440727B689B6C1343C1F88830EA
:1034B0007B681B6803F02003002B0AD06D496D4B1D
:1034C000D3F8883023F440627B68DB6C1343C1F887
:1034D00088307B681B6803F40073002B0AD06549B1
:1034E000644BD3F8883023F440227B68DB6D1343B0
:1034F000C1F888307B681B6803F48063002B0AD016
:103500005C495C4BD3F8883023F440127B681B6E17
:103510001343C1F888307B681B6803F04003002B1D
:103520000AD05449534BD3F8883023F440527B6877
:103530001B6D1343C1F888307B681B6803F0800360
:10354000002B0AD04B494B4BD3F8883023F4404230
:103550007B685B6D1343C1F888307B681B6803F49C
:103560008073002B0AD04349424BD3F8883023F4B0
:1035700040327B689B6D1343C1F888307B681B68C1
:1035800003F40053002B28D03A493A4BD3F8883043
:1035900023F040627B68DB6E1343C1F888307B68A0
:1035A000DB6EB3F1006F06D1324A324BDB6843F475
:1035B0008013D36011E07B68DB6EB3F1806F0CD1B8
:1035C0007B6804330121184600F0C8F80346FB74F9
:1035D000FB7C002B01D0FB7CBB747B681B6803F475
:1035E0000023002B28D02349224BD3F8883023F026
:1035F00040627B681B6F1343C1F888307B681B6F88
:10360000B3F1006F06D11B4A1A4BDB6843F48013F9
:10361000D36011E07B681B6FB3F1806F0CD17B68C6
:1036200004330121184600F099F80346FB74FB7C33
:10363000002B01D0FB7CBB747B681B6803F48023E8
:10364000002B2BD00B490B4BD3F8883023F0406272
:103650007B685B6F1343C1F888307B685B6FB3F1A5
:10366000006F09D1034A034BDB6843F48013D36036
:1036700014E000BF001002407B685B6FB3F1806F05
:103680000CD17B6804330121184600F067F803462B
:10369000FB74FB7C002B01D0FB7CBB747B681B683C
:1036A00003F48043002B2FD02B492B4BD3F88830C9
:1036B00023F040527B689B6F1343C1F888307B68CE
:1036C0009B6FB3F1805F0DD17B68043302211846F4
:1036D00000F044F80346FB74FB7C002B14D0FB7C09
:1036E000BB7411E07B689B6FB3F1005F0CD17B680A
:1036F00020330221184600F085F90346FB74FB7C59
:10370000002B01D0FB7CBB747B681B6803F4004377
:10371000002B0AD01049104BD3F8883023F0804298
:103720007B68DB6F1343C1F888307B681B6803F448
:103730008033002B0BD00849074BD3F8883023F097
:1037400000427B68D3F880301343C1F88830BB7CDB
:1037500018461837BD4680BD0010024090B595B0A0
:1037600000AF786039600023BB64002387F84F30D6
:10377000A34BDB6803F00303002B23D0A04BDB68D3
:1037800003F003027B681B689A4217D17B681B68B1
:10379000002B13D09A4BDB6803F0700270237B641C
:1037A0007B6C93FAA3F33B643B6CB3FA83F322FA8A
:1037B00003F35A1C7B685B689A4254D0012387F854
:1037C0004F3050E07B681B68022B0DD0032B15D0C7
:1037D000012B23D18A4B1B6803F00203002B21D15C
:1037E000012387F84F301DE0854B1B6803F480638D
:1037F000002B19D1012387F84F3015E0804B1B684F
:1038000003F40033002B11D17D4B1B6803F480239C
:10381000002B0BD1012387F84F3007E0012387F8F5
:103820004F3004E000BF02E000BF00E000BF97F8A7
:103830004F30002B17D1724C714BDB6823F07302B1
:103840007B6819687B685B68581E7023FB63FB6BA1
:1038500093FAA3F3BB63BB6BB3FA83F300FA03F3EE
:103860000B431343E36097F84F30002B40F0C280C6
:10387000634A634B1B6823F080631360FDF730F9E4
:10388000B8640AE0FDF72CF90246BB6CD31A022B90
:1038900003D9032387F84F3005E0594B1B6803F029
:1038A0000063002BEED197F84F30002B40F0A28040
:1038B0003B68002B26D1524C514B1B6923F41F331C
:1038C00023F440737A6891684FF4FE42FA62FA6A10
:1038D00092FAA2F2BA62BA6AB2FA82F291407A68B5
:1038E000D26810094FF400327A637A6B92FAA2F22E
:1038F0003A633A6BB2FA82F200FA02F20A431343D5
:10390000236151E03B68012B27D13D4C3C4B1B69A7
:1039100023F4C00323F4FE437A6891684FF4FE4217
:10392000FA61FA6992FAA2F2BA61BA69B2FA82F25B
:1039300091407A6812695208501E4FF4C0027A62B0
:103940007A6A92FAA2F23A623A6AB2FA82F200FA19
:1039500002F20A431343236126E0294C284B1B69DA
:1039600023F0C06323F4FE437A6891684FF4FE426B
:10397000FA60FA6892FAA2F2BA60BA68B2FA82F20F
:1039800091407A6852695208501E4FF0C0627A61C5
:103990007A6992FAA2F23A613A69B2FA82F200FACC
:1039A00002F20A4313432361154A154B1B6843F087
:1039B00080631360FDF794F8B8640AE0FDF790F8AF
:1039C0000246BB6CD31A022B03D9032387F84F306E
:1039D00005E00B4B1B6803F00063002BEED097F85B
:1039E0004F30002B06D10649054B1A697B689B694D
:1039F00013430B6197F84F3018465437BD4690BDBE
:103A00000010024090B591B000AF7860396000239B
:103A1000BB63002387F83F308D4BDB6803F0030363
:103A2000002B23D08A4BDB6803F003027B681B6802
:103A30009A4217D17B681B68002B13D0844BDB683C
:103A400003F0700270237B637B6B93FAA3F33B63F9
:103A50003B6BB3FA83F322FA03F35A1C7B685B686F
:103A60009A4254D0012387F83F3050E07B681B68AE
:103A7000022B0DD0032B15D0012B23D1744B1B68C7
:103A800003F00203002B21D1012387F83F301DE012
:103A90006F4B1B6803F48063002B19D1012387F857
:103AA0003F3015E06A4B1B6803F40033002B11D143
:103AB000674B1B6803F48023002B0BD1012387F88D
:103AC0003F3007E0012387F83F3004E000BF02E009
:103AD00000BF00E000BF97F83F30002B17D15C4CCF
:103AE0005B4BDB6823F073027B6819687B685B685B
:103AF000581E7023FB62FB6A93FAA3F3BB62BB6A96
:103B0000B3FA83F300FA03F30B431343E36097F82C
:103B10003F30002B40F096804D4A4D4B1B6823F000
:103B200080531360FCF7DCFFB8630AE0FCF7D8FFB2
:103B30000246BB6BD31A022B03D9032387F83F300D
:103B400005E0434B1B6803F00053002BEED197F8C0
:103B50003F30002B76D13B68002B26D13C4C3C4BB0
:103B60005B6923F41F3323F440737A6891684FF440
:103B7000FE42FA61FA6992FAA2F2BA61BA69B2FA3D
:103B800082F291407A68D26810094FF400327A626A
:103B90007A6A92FAA2F23A623A6AB2FA82F200FAC7
:103BA00002F20A431343636126E0294C284B5B6908
:103BB00023F0C06323F4FE437A6891684FF4FE4219
:103BC000FA60FA6892FAA2F2BA60BA68B2FA82F2BD
:103BD00091407A6812695208501E4FF0C0627A61B3
:103BE0007A6992FAA2F23A613A69B2FA82F200FA7A
:103BF00002F20A4313436361154A154B1B6843F0F5
:103C000080531360FCF76CFFB8630AE0FCF768FFB1
:103C10000246BB6BD31A022B03D9032387F83F302C
:103C200005E00B4B1B6803F00053002BEED097F818
:103C30003F30002B06D10649054B5A697B685B690A
:103C400013434B6197F83F3018464437BD4690BD4B
:103C50000010024080B582B000AF78607B68002B16
:103C600001D1012325E07B681B79012B01D10223BF
:103C70001FE07B6801221A717B685B79DBB2002B45
:103C800005D17B6800221A71786802F055FC7B68C8
:103C900002225A717B681B687A681268126842F0C7
:103CA00004021A607B6801225A717B6800221A7133
:103CB000002318460837BD4680BD84B080B582B069
:103CC00000AF786007F1140080E80E007B68DB68C5
:103CD00043F040027B68DA60786801F0E9F87B68BD
:103CE0004FF480329A63002318460837BD46BDE87A
:103CF000804004B0704780B483B000AF78607B68C8
:103D00009B6843F001027B689A60002318460C37D9
:103D1000BD465DF8047B704780B483B000AF786027
:103D20007B689B6823F001027B689A600023184639
:103D30000C37BD465DF8047B704780B582B000AF9C
:103D400078600B46FB707B68DB6823F0C0427B68C1
:103D5000DA60FB78012B06D17B68DB6843F0005208
:103D60007B68DA6008E0FB78002B05D17B68DB68B4
:103D700043F080427B68DA603220FCF7BDFE00230E
:103D800018460837BD4680BD84B080B584B000AF0A
:103D9000786007F11C0080E80E000023FB607B6860
:103DA0009B6B43F400127B689A637B6C002B11D1F0
:103DB0007B689B6B23F400127B689A637B681B68AB
:103DC00043F040027B681A607B681B6843F0800206
:103DD0007B681A607B6803F560631A4600231360F2
:103DE0007B6803F500631A467B6803F500631B6874
:103DF00013600321786800F03DF91021786800F025
:103E0000F1F8786800F014F97B6803F500631A464E
:103E1000002313617B6803F500631A460023536196
:103E20007B6803F500631A464FF0FF3393617B68AC
:103E300003F500631A460023D3610023FB6034E0DE
:103E4000FB685A017B68134403F510631B6803F099
:103E50000043B3F1004F0AD1FB685A017B68134459
:103E600003F510631A464FF09043136008E0FB68B7
:103E70005A017B68134403F510631A46002313604C
:103E8000FB685A017B68134403F510631A4600234C
:103E90001361FB685A017B68134403F510631A46EB
:103EA000FF239360FB680133FB60FA69FB689A4269
:103EB000C6D80023FB6034E0FB685A017B681344DA
:103EC00003F530631B6803F00043B3F1004F0AD1E0
:103ED000FB685A017B68134403F530631A464FF0C0
:103EE0009043136008E0FB685A017B68134403F5B4
:103EF00030631A4600231360FB685A017B68134441
:103F000003F530631A4600231361FB685A017B688E
:103F1000134403F530631A46FF239360FB680133B3
:103F2000FB60FA69FB689A42C6D87B6803F50063B8
:103F30001A467B6803F500631B6923F480731361E1
:103F4000BB6A012B17D17B6803F500631A46234B2C
:103F500013637B6803F500631A467B6803F500630F
:103F60001B6B43F4803343F0030313637B6803F557
:103F700000631B6BFB607B6800229A617B686FF0BB
:103F800080425A61BB6A002B05D17B689B6943F074
:103F900010027B689A617B689A69114B13437A68B7
:103FA00093617B6B002B05D07B689B6943F0080213
:103FB0007B689A617B6C012B07D17B689B6943F01E
:103FC000804343F004037A68936100231846103756
:103FD000BD46BDE8804004B0704700BF00018000CE
:103FE00000383C8080B485B000AF78603960002331
:103FF000FB603B689B0143F020027B681A61FB6811
:104000000133FB60FB68094A934201D9032306E0B0
:104010007B681B6903F02003202BF0D00023184697
:104020001437BD465DF8047B704700BF400D0300A8
:1040300080B485B000AF78600023FB607B681022FD
:104040001A61FB680133FB60FB68094A934201D99E
:10405000032306E07B681B6903F01003102BF0D0EC
:10406000002318461437BD465DF8047B704700BF37
:10407000400D030080B483B000AF78600B46FB7046
:104080007B6803F5006319467B6803F500631A68D3
:10409000FB7813430B60002318460C37BD465DF8D0
:1040A000047B704780B483B000AF786039603B68B0
:1040B0005B78012B3ED17B6803F5006319467B6872
:1040C00003F50063DA693B681B78184601238340D7
:1040D0009BB21343CB613B681B785A017B68134446
:1040E00003F510631B6803F40043002B5CD13B68AD
:1040F0001B785A017B68134403F5106318463B682C
:104100001B785A017B68134403F510631A683B68F7
:104110009B68C3F30A033968C97889040B4339687B
:10412000097889050B43134343F0805343F400435C
:10413000036039E07B6803F5006319467B6803F58B
:104140000063DB693A68127810460122824012044B
:104150001343CB613B681B785A017B68134403F51A
:1041600030631B6803F40043002B1DD13B681B78B0
:104170005A017B68134403F5306318463B681B788B
:104180005A017B68134403F530631A683B689B68E7
:10419000C3F30A033968C97889040B43134343F016
:1041A000805343F400430360002318460C37BD4698
:1041B0005DF8047B704780B483B000AF78603960ED
:1041C0003B685B78012B35D17B6803F500631946AA
:1041D0007B6803F50063DA6B3B681B7818460123A4
:1041E00083409BB2DB431340CB637B6803F50063E2
:1041F00019467B6803F50063DA693B681B7818464B
:10420000012383409BB2DB431340CB613B681B78A7
:104210005A017B68134403F5106319463B681B7809
:104220005A017B68134403F510631B6823F40043B1
:104230000B6034E07B6803F5006319467B6803F587
:104240000063DA6B3B681B781846012383401B042C
:10425000DB431340CB637B6803F5006319467B683F
:1042600003F50063DA693B681B7818460123834035
:104270001B04DB431340CB613B681B785A017B680E
:10428000134403F5306319463B681B785A017B6879
:10429000134403F530631B6823F400430B600023D1
:1042A00018460C37BD465DF8047B704780B588B072
:1042B00002AFF860B9601346FB710023FB82BB6854
:1042C0005B78012B40F03781BB685B69002B3BD1E9
:1042D000BB681B785A01FB68134403F51063194649
:1042E000BB681B785A01FB68134403F510631B6914
:1042F00023F0FF5323F4C0130B61BB681B785A01F2
:10430000FB68134403F510631946BB681B785A0118
:10431000FB68134403F510631B6943F400230B612E
:10432000BB681B785A01FB68134403F510631946F8
:10433000BB681B785A01FB68134403F510631B69C3
:10434000DB0CDB040B6186E0BB681B785A01FB6861
:10435000134403F510631946BB681B785A01FB68C8
:10436000134403F510631B69DB0CDB040B61BB68B2
:104370001B785A01FB68134403F510631946BB68A8
:104380001B785A01FB68134403F510631B6923F083
:10439000FF5323F4C0130B61BB681B785A01FB6801
:1043A000134403F510631846BB681B785A01FB6879
:1043B000134403F510631A69BB685969BB689B68AD
:1043C0000B44591EBB689B68B1FBF3F3D904854BC2
:1043D0000B4013430361BB681B785A01FB6813440D
:1043E00003F510631946BB681B785A01FB68134438
:1043F00003F510631A69BB685B69C3F312031343C7
:104400000B61BB68DB78012B25D1BB681B785A0197
:10441000FB68134403F510631946BB681B785A0107
:10442000FB68134403F510631B6923F0C0430B6161
:10443000BB681B785A01FB68134403F510631946E7
:10444000BB681B785A01FB68134403F510631B69B2
:1044500043F000530B61BB68DB78012B12D0BB68C3
:104460005B69002B0ED0FB6803F500631946FB68FF
:1044700003F500635B6BBA68127810460122824034
:1044800013434B63BB68DB78012B2ED1FB6803F52C
:1044900000639B6803F48073002B13D1BB681B7807
:1044A0005A01FB68134403F510631946BB681B7877
:1044B0005A01FB68134403F510631B6843F0005373
:1044C0000B6012E0BB681B785A01FB68134403F5CC
:1044D00010631946BB681B785A01FB68134403F547
:1044E00010631B6843F080530B60BB681B785A0154
:1044F000FB68134403F510631946BB681B785A0127
:10450000FB68134403F510631B6843F004430B601E
:10451000BB68DB78012B40F0E880BB68D968BB68DA
:104520001A78BB685B6998B2FB7900930346F86818
:1045300000F023FAD9E0BB681B785A01FB681344EA
:1045400003F530631946BB681B785A01FB681344B6
:1045500003F530631B69DB0CDB040B61BB681B7864
:104560005A01FB68134403F530631946BB681B7896
:104570005A01FB68134403F530631B6923F0FF53B2
:1045800023F4C0130B61BB685B69002B2CD1BB68A3
:104590001B785A01FB68134403F530631946BB6866
:1045A0001B785A01FB68134403F530631A69BB6832
:1045B0009B68C3F3120313430B61BB681B785A015A
:1045C000FB68134403F530631946BB681B785A0136
:1045D000FB68134403F530631B6943F400230B614C
:1045E0003DE000BF0000F81FBB685A69BB689B68CC
:1045F00013445A1EBB689B68B2FBF3F3FB82BB6893
:104600001B785A01FB68134403F530631946BB68F5
:104610001B785A01FB68134403F530631A69FB8A5F
:10462000DB041846334B034013430B61BB681B7814
:104630005A01FB68134403F530631846BB681B78C6
:104640005A01FB68134403F530631A69BB689B6821
:10465000F98A01FB03F3C3F3120313430361BB683D
:10466000DB78012B2ED1FB6803F500639B6803F414
:104670008073002B13D1BB681B785A01FB6813446D
:1046800003F530631946BB681B785A01FB68134475
:1046900003F530631B6843F000530B6012E0BB6806
:1046A0001B785A01FB68134403F530631946BB6855
:1046B0001B785A01FB68134403F530631B6843F011
:1046C00080530B60BB681B785A01FB68134403F5E9
:1046D00030631946BB681B785A01FB68134403F525
:1046E00030631B6843F004430B60002318461837FF
:1046F000BD4680BD0000F81F80B485B000AFF860F3
:10470000B9601346FB71BB685B78012B40F0C28037
:10471000BB685B69002B3BD1BB681B785A01FB6807
:10472000134403F510631946BB681B785A01FB68F4
:10473000134403F510631B6923F0FF5323F4C013E4
:104740000B61BB681B785A01FB68134403F51063C7
:104750001946BB681B785A01FB68134403F51063C4
:104760001B6943F400230B61BB681B785A01FB688B
:10477000134403F510631946BB681B785A01FB68A4
:10478000134403F510631B69DB0CDB040B615AE077
:10479000BB681B785A01FB68134403F51063194684
:1047A000BB681B785A01FB68134403F510631B694F
:1047B000DB0CDB040B61BB681B785A01FB681344FC
:1047C00003F510631946BB681B785A01FB68134454
:1047D00003F510631B6923F0FF5323F4C0130B612F
:1047E000BB685A69BB689B689A4203D9BB689A68E0
:1047F000BB685A61BB681B785A01FB68134403F518
:1048000010631946BB681B785A01FB68134403F513
:1048100010631B6943F400230B61BB681B785A01CA
:10482000FB68134403F510631946BB681B785A01F3
:10483000FB68134403F510631A69BB685B69C3F333
:10484000120313430B61BB685B69002B0ED0FB683E
:1048500003F500631946FB6803F500635B6BBA68F8
:10486000127810460122824013434B63BB681B78C9
:104870005A01FB68134403F510631946BB681B78A3
:104880005A01FB68134403F510631B6843F00443AB
:104890000B606BE0BB681B785A01FB68134403F59F
:1048A00030631946BB681B785A01FB68134403F553
:1048B00030631B69DB0CDB040B61BB681B785A019E
:1048C000FB68134403F530631946BB681B785A0133
:1048D000FB68134403F530631B6923F0FF5323F493
:1048E000C0130B61BB685B69002B03D0BB689A687F
:1048F000BB685A61BB681B785A01FB68134403F517
:1049000030631946BB681B785A01FB68134403F5F2
:1049100030631B6943F400230B61BB681B785A01A9
:10492000FB68134403F530631946BB681B785A01D2
:10493000FB68134403F530631A69BB689B68C3F3D3
:10494000120313430B61BB681B785A01FB681344C5
:1049500003F530631946BB681B785A01FB681344A2
:1049600003F530631B6843F004430B6000231846D3
:104970001437BD465DF8047B704780B487B000AF44
:10498000F860B96011461A460B46FB711346BB80AE
:1049900000233B6100237B61BB880333002B00DADB
:1049A00003339B103B6100237B610FE0FB791A030B
:1049B000FB68134403F580531A46BB681B681360F9
:1049C0007B6901337B61BB680433BB607A693B69F7
:1049D0009A42EBD3002318461C37BD465DF8047B92
:1049E000704780B487B000AFF860B9601346FB80B1
:1049F00000237B61FB880333002B00DA03339B1019
:104A00003B6100237B610BE0FB6803F580531A6870
:104A1000BB681A607B6901337B61BB680433BB6090
:104A20007A693B699A42EFD3BB6818461C37BD468A
:104A30005DF8047B704780B483B000AF7860396064
:104A40003B685B78012B30D13B681B785A017B684F
:104A5000134403F510631B68002B12DB3B681B78C3
:104A60005A017B68134403F5106319463B681B78B1
:104A70005A017B68134403F510631B6823F08043DD
:104A80000B603B681B785A017B68134403F5106385
:104A900019463B681B785A017B68134403F5106381
:104AA0001B6843F400130B602FE03B681B785A012E
:104AB0007B68134403F530631B68002B12DB3B68F3
:104AC0001B785A017B68134403F5306319463B6831
:104AD0001B785A017B68134403F530631B6823F08D
:104AE00080430B603B681B785A017B68134403F5D5
:104AF000306319463B681B785A017B68134403F501
:104B000030631B6843F400130B60002318460C3716
:104B1000BD465DF8047B704780B483B000AF786019
:104B200039603B685B78012B2ED13B681B785A01BA
:104B30007B68134403F5106319463B681B785A01E0
:104B40007B68134403F510631B6823F400130B60A8
:104B50003B68DB78032B03D03B68DB78022B41D129
:104B60003B681B785A017B68134403F510631946B0
:104B70003B681B785A017B68134403F510631B687C
:104B800043F080530B602DE03B681B785A017B6833
:104B9000134403F5306319463B681B785A017B6860
:104BA000134403F530631B6823F400130B603B6868
:104BB000DB78032B03D03B68DB78022B12D13B68F8
:104BC0001B785A017B68134403F5306319463B6830
:104BD0001B785A017B68134403F530631B6843F06C
:104BE00080530B60002318460C37BD465DF8047BEC
:104BF000704780B483B000AF78600B46FB707B6871
:104C000003F500631A467B6803F500631B6823F411
:104C1000FE6313607B6803F5006319467B6803F548
:104C200000631A68FB781B0103F4FE6313430B60F7
:104C3000002318460C37BD465DF8047B704780B5ED
:104C400082B000AF78607B6803F500631A467B682A
:104C500003F500635B6823F0020353600320FBF756
:104C60004BFF002318460837BD4680BD80B582B093
:104C700000AF78607B6803F500631A467B6803F534
:104C800000635B6843F0020353600320FBF734FFCB
:104C9000002318460837BD4680BD80B485B000AFFC
:104CA00078600023FB607B685B69FB607B689B69C5
:104CB000FA681340FB60FB6818461437BD465DF880
:104CC000047B704780B485B000AF78607B6803F5E3
:104CD00000639B69FB607B6803F50063DB69FA682E
:104CE0001340FB60FB681B0C18461437BD465DF88B
:104CF000047B704780B485B000AF78607B6803F5B3
:104D000000639B69FB607B6803F50063DB69FA68FD
:104D10001340FB60FB689BB218461437BD465DF834
:104D2000047B704780B485B000AF78600B46FB70A1
:104D3000FB785A017B68134403F530639B68FB6082
:104D40007B6803F500635B69FA681340FB60FB68EE
:104D500018461437BD465DF8047B704780B487B0B1
:104D600000AF78600B46FB7000237B6100233B6142
:104D70000023FB607B6803F500631B693B617B6874
:104D800003F500635B6BFB60FB78FA6822FA03F3C0
:104D9000DB01DBB23A6913433B61FB785A017B6864
:104DA000134403F510639A683B6913407B617B6988
:104DB00018461C37BD465DF8047B704780B483B04D
:104DC00000AF78607B685B6903F0010318460C371D
:104DD000BD465DF8047B704780B483B000AF786057
:104DE0007B6803F510631A467B6803F510631B6844
:104DF00023F4FF6323F0070313607B6803F500636C
:104E00009B6803F00603042B0AD17B6803F510634B
:104E10001A467B6803F510631B6843F003031360B5
:104E20007B6803F500631A467B6803F500635B68E3
:104E300043F480735360002318460C37BD465DF879
:104E4000047B704780B485B000AFF8600B467A6091
:104E5000FB72FB6803F530631A4600231361FB689D
:104E600003F530631A46FB6803F530631B6943F4AE
:104E700000231361FB6803F530631A46FB6803F5F2
:104E800030631B6943F018031361FB6803F530635B
:104E90001A46FB6803F530631B6943F0C043136196
:104EA000002318461437BD465DF8047B70470000A8
:104EB00080B485B000AF78600023FB60FB680133ED
:104EC000FB60FB68134A934201D903231BE07B6814
:104ED0001B69002BF2DA0023FB607B681B6943F03F
:104EE00001027B681A61FB680133FB60FB68094AB9
:104EF000934201D9032306E07B681B6903F0010399
:104F0000012BF0D0002318461437BD465DF8047B12
:104F1000704700BF400D030080B582B000AF154B55
:104F20001B68DB680C220121134802F05DFB0023A3
:104F30007B6017E0114A7B689B001344DB88002BE1
:104F40000DD00C4B1B68D9680C4A7B689B0013443E
:104F50009B881833094A1344184602F0EFFA7B681D
:104F600001337B607B68032BE4D900BF0837BD4663
:104F700080BD00BF680100203484020800000010DA
:104F800080B584B000AF78600B46FB700023FB73E4
:104F90007B681B7C002B0ED14FF400730222812111
:104FA000786801F037FF4FF400730222012178681E
:104FB00001F030FF0BE0402302228121786801F0EC
:104FC00029FF402302220121786801F023FF0823F2
:104FD00003228221786801F01DFF4FF4077002F070
:104FE00033F902467B68C3F818227B68D3F818327D
:104FF000002B02D10123FB7326E07B68D3F8183223
:10500000BB607B68D3F81C321B689847BB680022E2
:10501000C3F81422BB680022C3F818227B681B7CEB
:10502000002B09D1BB68D3F804224FF4007301218F
:10503000786802F06BF807E0BB68D3F804224023DD
:105040000121786802F062F8FB7B18461037BD46F4
:1050500080BD80B584B000AF78600B46FB70002344
:10506000FB738121786801F013FF0121786801F05A
:105070000FFF8221786801F00BFF7B68D3F81832AC
:10508000002B0ED07B68D3F81C325B6898477B6896
:10509000D3F81832184602F0E5F87B680022C3F80E
:1050A0001822FB7B18461037BD4680BD80B584B002
:1050B00000AF786039607B68D3F81832FB603B68DA
:1050C0001B7803F06003002B3AD0202B00D043E084
:1050D0003B68DB88002B29D03B681B785BB2002B38
:1050E00011DA7B68D3F81C329B683A685078F9680B
:1050F0003A68D2889847F9683B68DB881A4678682E
:1051000001F048F829E03B685A78FB6883F80022F0
:105110003B68DB88DAB2FB6883F80122F9683B68F8
:10512000DB881A46786801F063F816E07B68D3F8EC
:105130001C329B683A6850780022396898470CE026
:105140003B685B780A2B01D00B2B05E00122054957
:10515000786801F01FF800BF00BF00231846103721
:10516000BD4680BDE801002080B485B000AF786006
:105170000B46FB707B68D3F81832FB607B68D3F872
:105180001832002B05D0FB680022C3F8142200233C
:1051900000E0022318461437BD465DF8047B7047D3
:1051A00080B584B000AF78600B46FB707B68D3F8A5
:1051B0001832FB60FB781946786801F0E1FF02467F
:1051C000FB68C3F80C227B68D3F81832002B0DD093
:1051D0007B68D3F81C32DB68FA68D2F80402FA68FC
:1051E00002F5037211469847002300E00223184697
:1051F0001037BD4680BD80B584B000AF78607B6855
:10520000D3F81832FB607B68D3F81C32002B15D022
:10521000FB6893F80032FF2B10D07B68D3F81C3268
:105220009B68FA6892F80002F968FA6892F801221D
:1052300092B29847FB68FF2283F8002200231846A9
:105240001037BD4680BD000080B483B000AF7860E9
:105250007B6843221A80034B18460C37BD465DF825
:10526000047B70478800002080B483B000AF786072
:105270007B6843221A80034B18460C37BD465DF805
:10528000047B70474400002080B483B000AF786096
:105290007B6843221A80034B18460C37BD465DF8E5
:1052A000047B7047CC00002080B483B000AF7860EE
:1052B0007B680A221A80034B18460C37BD465DF8FE
:1052C000047B70470000002080B485B000AF786098
:1052D00039600223FB733B68002B05D07B683A687A
:1052E000C3F81C220023FB73FB7B18461437BD4612
:1052F0005DF8047B704780B487B000AFF860B96098
:105300001346FB80FB68D3F818327B617B69BA686F
:10531000C3F80822FA887B69C3F8102200231846D4
:105320001C37BD465DF8047B704780B485B000AF84
:10533000786039607B68D3F81832FB60FB683A68A4
:10534000C3F80422002318461437BD465DF8047BD9
:10535000704780B584B000AF78607B68D3F81832AE
:10536000FB607B68D3F81832002B17D07B681B7C5E
:10537000002B09D1FB68D3F804224FF400730121FC
:10538000786801F0C3FE07E0FB68D3F804224023ED
:105390000121786801F0BAFE002300E002231846DC
:1053A0001037BD4680BD80B584B000AFF860B960ED
:1053B0001346FB71FB68002B01D102231AE0FB6846
:1053C000D3F81432002B03D0FB680022C3F8142258
:1053D000BB68002B03D0FB68BA68C3F81022FB68D7
:1053E000012283F8FC21FB68FA791A70F86801F051
:1053F00093FC002318461037BD4680BD80B485B0AD
:1054000000AF786039600023FB733B68002B06D047
:105410007B683A68C3F814220023FB7301E002237F
:10542000FB73FB7B18461437BD465DF8047B704761
:1054300080B582B000AF7860786801F0B9FC0023D5
:1054400018460837BD4680BD80B483B000AF786091
:10545000002318460C37BD465DF8047B704780B5C5
:1054600084B000AF78600B46FB700223FB737B684F
:10547000D3F81432002B0CD07B68D3F814321B689D
:10548000FA781146786898470346002B01D100232B
:10549000FB73FB7B18461037BD4680BD80B582B0DC
:1054A00000AF78600B46FB707B68D3F814325B6802
:1054B000FA78114678689847002318460837BD46A1
:1054C00080BD80B582B000AF786039607B6803F53D
:1054D00002733968184600F0B4FD7B680122C3F8F6
:1054E000F4217B68B3F80E321A467B68C3F8F821C2
:1054F0007B6893F8083203F01F03012B0BD0022BBB
:1055000011D0002B17D17B6803F502731946786818
:1055100000F0C6F91AE07B6803F502731946786853
:1055200000F00EFA12E07B6803F502731946786802
:1055300000F039FA0AE07B6893F8083223F07F0321
:10554000DBB21946786801F0D9FC00BF0023184689
:105550000837BD4680BD80B586B000AFF8600B4609
:105560007A60FB72FB7A002B38D1FB6803F58273FB
:105570007B61FB68D3F8F431032B42D17B699A68D5
:105580007B69DB689A4214D97B699A687B69DB681E
:10559000D21A7B699A607B69DA687B699B6893425F
:1055A00028BF13469BB21A467968F86800F03EFEA1
:1055B00027E0FB68D3F814321B69002B0AD0FB6884
:1055C00093F8FC31032B05D1FB68D3F814321B6927
:1055D000F8689847F86800F03BFE12E0FB68D3F8E3
:1055E00014329B69002B0CD0FB6893F8FC31032B21
:1055F00007D1FB68D3F814329B69FA7A1146F86830
:105600009847002318461837BD4680BD80B586B040
:1056100000AFF8600B467A60FB72FB7A002B6CD10E
:10562000FB6814337B61FB68D3F8F431022B57D14C
:105630007B699A687B69DB689A4215D97B699A68AD
:105640007B69DB68D21A7B699A607B699B689BB235
:105650001A467968F86800F0B9FD0023002200219D
:10566000F86801F053FD3BE07B695B687A69D268BA
:10567000B3FBF2F102FB01F29B1A002B1CD17B69F8
:105680005A687B69DB689A4216D37B695A68FB6863
:10569000D3F8F8319A420FD200220021F86800F0C6
:1056A00095FDFB680022C3F8F821002300220021A9
:1056B000F86801F02BFD13E0FB68D3F81432DB68C7
:1056C000002B0AD0FB6893F8FC31032B05D1FB6853
:1056D000D3F81432DB68F8689847F86800F0CBFD1F
:1056E000FB6893F80032012B1AD1F868FFF7ACFE83
:1056F000FB68002283F8002212E0FB68D3F8143222
:105700005B69002B0CD0FB6893F8FC31032B07D1AD
:10571000FB68D3F814325B69FA7A1146F868984747
:10572000002318461837BD4680BD80B582B000AF53
:105730007860402300220021786801F06BFB7B68D1
:105740004022C3F81021402300228021786801F014
:1057500061FB7B6840221A627B68012283F8FC218E
:105760007B68D3F81832002B09D07B68D3F8143249
:105770005B687A685268D2B211467868984700230D
:1057800018460837BD4680BD80B483B000AF78604E
:105790000B46FB707B68FA781A74002318460C37A6
:1057A000BD465DF8047B704780B483B000AF78607D
:1057B0007B6893F8FC217B6883F8FD217B680422D9
:1057C00083F8FC21002318460C37BD465DF8047BA6
:1057D000704780B483B000AF78607B6893F8FD2198
:1057E0007B6883F8FC21002318460C37BD465DF822
:1057F000047B704780B582B000AF78607B6893F817
:10580000FC31032B0BD17B68D3F81432DB69002BFE
:1058100005D07B68D3F81432DB6978689847002399
:1058200018460837BD4680BD80B483B000AF7860AD
:105830000B46FB70002318460C37BD465DF8047B11
:10584000704780B483B000AF78600B46FB700023D4
:1058500018460C37BD465DF8047B704780B483B0B2
:1058600000AF7860002318460C37BD465DF8047B16
:10587000704780B582B000AF78607B68012283F802
:10588000FC217B68D3F814325B687A685268D2B224
:10589000114678689847002318460837BD4680BDF2
:1058A00080B584B000AF786039600023FB733B683B
:1058B0005B78092B39D801A252F823F00D59020860
:1058C000215902082B590208175902082B590208BE
:1058D000EF580208E55802082B590208035902083C
:1058E000F95802083968786800F036F922E039681A
:1058F000786800F041FA1DE03968786800F07AFABB
:1059000018E03968786800F0FDFA13E039687868C3
:1059100000F02AFB0EE03968786800F04FFB09E0E0
:105920003968786800F065FB04E03968786800F051
:10593000C5FB00BFFB7B18461037BD4680BD00BFCE
:1059400080B584B000AF786039600023FB737B685A
:1059500093F8FC31032B1BD13B689B88DBB2012BF6
:1059600011D87B68D3F814329B68396878689847F7
:105970003B68DB88002B10D1FB7B002B0DD17868B6
:1059800000F066FC09E03968786800F097FB04E0F5
:105990003968786800F092FB00E000BF00231846E9
:1059A0001037BD4680BD80B584B000AF78603960E7
:1059B0000023FB733B689B88BB733B681B7803F039
:1059C0006003202B08D17B68D3F814329B683968B8
:1059D000786898470023BAE03B685B78012B39D0A0
:1059E000032B02D0002B6BD0B0E07B6893F8FC3126
:1059F000022B02D0032B0CD025E0BB7B002B27D041
:105A0000BB7B802B24D0BB7B1946786801F076FAEB
:105A10001EE03B685B88002B0AD1BB7B002B07D0C4
:105A2000BB7B802B04D0BB7B1946786801F066FAFB
:105A30007B68D3F814329B6839687868984778682F
:105A400000F006FC05E03968786800F037FB00E0FC
:105A500000BF7BE07B6893F8FC31022B02D0032B64
:105A60000CD024E0BB7B002B26D0BB7B802B23D02B
:105A7000BB7B1946786801F041FA1DE03B685B8802
:105A8000002B1BD1BB7B03F07F03002B0BD0BB7B18
:105A90001946786801F068FA7B68D3F814329B687D
:105AA000396878689847786800F0D2FB06E0396872
:105AB000786800F003FB02E000BF47E000BF45E06C
:105AC0007B6893F8FC31022B02D0032B0BD036E01D
:105AD000BB7B03F07F03002B36D0BB7B1946786875
:105AE00001F00CFA30E097F90E30002B08DABB7B9E
:105AF00003F07F0301331B017A681344043307E08A
:105B0000BB7B03F07F0310331B017A68134404331B
:105B1000BB60BB7B1946786801F05CFA0346002B3A
:105B200003D0BB6801221A6002E0BB6800221A6041
:105B3000BB6802221946786800F02CFB05E0396842
:105B4000786800F0BBFA00E000BF00BFFB7B18469E
:105B50001037BD4680BD000080B584B000AF7860CE
:105B600039603B685B881B0A9BB2013B0E2B00F23D
:105B7000E58001A252F823F0CD5B0208E55B020844
:105B8000255C02083D5D02083D5D0208E95C0208F3
:105B90000F5D02083D5D02083D5D02083D5D0208A3
:105BA0003D5D02083D5D02083D5D02083D5D020865
:105BB000B55B02087B68D3F81032DB697A68127C27
:105BC00007F10A0110469847F860BCE07B68D3F8FB
:105BD00010321B687A68127C07F10A011046984758
:105BE000F860B0E07B681B7C002B0DD17B68D3F89C
:105BF00014329B6A07F10A0210469847F860FB6866
:105C0000013302221A709EE07B68D3F81432DB6AFB
:105C100007F10A0210469847F860FB680133022238
:105C20001A7090E03B685B88DBB2052B56D801A266
:105C300052F823F04D5C0208655C02087D5C0208A6
:105C4000955C0208AD5C0208C55C02087B68D3F86D
:105C500010325B687A68127C07F10A011046984797
:105C6000F86040E07B68D3F810329B687A68127C59
:105C700007F10A0110469847F86034E07B68D3F8D2
:105C80001032DB687A68127C07F10A0110469847E7
:105C9000F86028E07B68D3F810321B697A68127CC0
:105CA00007F10A0110469847F8601CE07B68D3F8BA
:105CB00010325B697A68127C07F10A011046984736
:105CC000F86010E07B68D3F810329B697A68127C28
:105CD00007F10A0110469847F86004E039687868CF
:105CE00000F0ECF944E02EE07B681B7C002B09D12E
:105CF0007B68D3F814325B6B07F10A0210469847B1
:105D0000F86020E03968786800F0D8F930E07B6806
:105D10001B7C002B0DD17B68D3F814321B6B07F171
:105D20000A0210469847F860FB68013307221A7090
:105D300009E03968786800F0C1F919E039687868D5
:105D400000F0BCF914E07B89002B11D03B68DB88A4
:105D5000002B0DD03B68DA887B89934228BF13461D
:105D60009BB27B817B891A46F968786800F012FA49
:105D70001037BD4680BD00BF80B584B000AF7860ED
:105D800039603B689B88002B2CD13B68DB88002B5B
:105D900028D13B685B88DBB203F07F03FB737B6831
:105DA00093F8FC31032B04D13968786800F086F948
:105DB0001CE07B68FA7B83F8FE21FB7B1946786840
:105DC00001F034F9786800F043FAFB7B002B04D033
:105DD0007B68022283F8FC2108E07B68012283F8BB
:105DE000FC2103E03968786800F068F900BF1037DB
:105DF000BD4680BD80B582B000AF786039603B6839
:105E00005B88DAB23E4B1A703D4B1B78012B04D9EC
:105E10003968786800F052F96FE07B6893F8FC31DC
:105E2000022B02D0032B23D062E0354B1B78002BD2
:105E30001AD0334B1B781A467B685A607B68032262
:105E400083F8FC212E4B1B7819467868FFF707FB77
:105E50000346022B04D13968786800F02FF94CE032
:105E6000786800F0F5F948E0786800F0F1F944E06E
:105E7000234B1B78002B12D17B68022283F8FC2174
:105E80001F4B1B781A467B685A601D4B1B781946BE
:105E90007868FFF703FB786800F0DAF92DE0184B1B
:105EA0001B781A467B685B689A421DD07B685B68EA
:105EB000DBB219467868FFF7F1FA114B1B781A46E6
:105EC0007B685A600E4B1B7819467868FFF7C7FA53
:105ED0000346022B04D13968786800F0EFF80CE033
:105EE000786800F0B5F908E0786800F0B1F904E0EE
:105EF0003968786800F0E2F800BF0837BD4680BD19
:105F0000E901002080B582B000AF786039603B685D
:105F1000DB88012B04D03968786800F0CFF81FE0E7
:105F20007B6893F8FC31022B02D0032B0BD012E0DC
:105F30007B6800229A607B680833012219467868E2
:105F400000F028F90CE07B680433012219467868D8
:105F500000F020F904E03968786800F0AFF800BF7D
:105F600000BF0837BD4680BD80B582B000AF786005
:105F700039607B6893F8FC31023B012B15D87B68B4
:105F80000122DA607B68D3F80432002B05D07B68ED
:105F9000DB6843F002027B68DA607B680C33022224
:105FA0001946786800F0F6F804E03968786800F07F
:105FB00085F800BF00BF0837BD4680BD80B582B000
:105FC00000AF786039603B685B88012B0DD17B683E
:105FD0000122C3F804227B68D3F814329B68396825
:105FE00078689847786800F033F900BF0837BD46F5
:105FF00080BD80B582B000AF786039607B6893F86F
:10600000FC31023B012B12D83B685B88012B13D17A
:106010007B680022C3F804227B68D3F814329B68A3
:10602000396878689847786800F012F904E03968B0
:10603000786800F043F800E000BF00BF0837BD46B5
:1060400080BD80B483B000AF786039603B681A7857
:106050007B681A703B685A787B685A703B680233D9
:106060001B789AB23B6803331B789BB21B029BB22E
:1060700013449AB27B685A803B6804331B789AB207
:106080003B6805331B789BB21B029BB213449AB248
:106090007B689A803B6806331B789AB23B6807336B
:1060A0001B789BB21B029BB213449AB27B68DA80C6
:1060B00000BF0C37BD465DF8047B704780B582B0E9
:1060C00000AF786039608021786800F017FF002108
:1060D000786800F013FF00BF0837BD4680BD80B56B
:1060E00086B000AFF860B9607A600023FB75FB688A
:1060F000002B33D0F86800F035F8034601339BB22B
:106100005B009AB27B681A80FB7D5A1CFA751A46AE
:10611000BB6813447A681288D2B21A70FB7D5A1C8D
:10612000FA751A46BB68134403221A7012E0FB7D0D
:106130005A1CFA751A46BB681A44FB68591CF96068
:106140001B781370FB7D5A1CFA751A46BB68134402
:1061500000221A70FB681B78002BE8D100BF1837AB
:10616000BD4680BD80B485B000AF78600023FB736E
:1061700005E0FB7B0133FB737B6801337B607B684D
:106180001B78002BF5D1FB7B18461437BD465DF814
:10619000047B704780B584B000AFF860B9601346E7
:1061A000FB80FB680222C3F8F421FA88FB689A613D
:1061B000FA88FB68DA61FB88BA680021F86800F0A9
:1061C0006BFF002318461037BD4680BD80B584B0F4
:1061D00000AFF860B9601346FB80FB88BA68002105
:1061E000F86800F059FF002318461037BD4680BDFF
:1061F00080B584B000AFF860B9601346FB80FB68DF
:106200000322C3F8F421FA88FB68C3F80821FA884E
:10621000FB68C3F80C21FB88BA680021F86800F01D
:1062200075FF002318461037BD4680BD80B584B089
:1062300000AFF860B9601346FB80FB88BA680021A4
:10624000F86800F063FF002318461037BD4680BD94
:1062500080B582B000AF78607B680422C3F8F42177
:10626000002300220021786800F016FF0023184662
